{
  "_format": "hh-sol-artifact-1",
  "contractName": "MyEpicGame",
  "sourceName": "contracts/MyEpicGame.sol",
  "abi": [
    {
      "inputs": [
        {
          "internalType": "string[]",
          "name": "characterNames",
          "type": "string[]"
        },
        {
          "internalType": "string[]",
          "name": "characterImageURIs",
          "type": "string[]"
        },
        {
          "internalType": "uint256[]",
          "name": "characterHp",
          "type": "uint256[]"
        },
        {
          "internalType": "uint256[]",
          "name": "characterAttackDmg",
          "type": "uint256[]"
        },
        {
          "internalType": "string",
          "name": "bossName",
          "type": "string"
        },
        {
          "internalType": "string",
          "name": "bossImageURI",
          "type": "string"
        },
        {
          "internalType": "uint256",
          "name": "bossHp",
          "type": "uint256"
        },
        {
          "internalType": "uint256",
          "name": "bossAttackDamage",
          "type": "uint256"
        }
      ],
      "stateMutability": "nonpayable",
      "type": "constructor"
    },
    {
      "anonymous": false,
      "inputs": [
        {
          "indexed": true,
          "internalType": "address",
          "name": "owner",
          "type": "address"
        },
        {
          "indexed": true,
          "internalType": "address",
          "name": "approved",
          "type": "address"
        },
        {
          "indexed": true,
          "internalType": "uint256",
          "name": "tokenId",
          "type": "uint256"
        }
      ],
      "name": "Approval",
      "type": "event"
    },
    {
      "anonymous": false,
      "inputs": [
        {
          "indexed": true,
          "internalType": "address",
          "name": "owner",
          "type": "address"
        },
        {
          "indexed": true,
          "internalType": "address",
          "name": "operator",
          "type": "address"
        },
        {
          "indexed": false,
          "internalType": "bool",
          "name": "approved",
          "type": "bool"
        }
      ],
      "name": "ApprovalForAll",
      "type": "event"
    },
    {
      "anonymous": false,
      "inputs": [
        {
          "indexed": false,
          "internalType": "uint256",
          "name": "newBossHp",
          "type": "uint256"
        },
        {
          "indexed": false,
          "internalType": "uint256",
          "name": "newPlayerHp",
          "type": "uint256"
        }
      ],
      "name": "AttackComplete",
      "type": "event"
    },
    {
      "anonymous": false,
      "inputs": [
        {
          "indexed": false,
          "internalType": "address",
          "name": "sender",
          "type": "address"
        },
        {
          "indexed": false,
          "internalType": "uint256",
          "name": "tokenId",
          "type": "uint256"
        },
        {
          "indexed": false,
          "internalType": "uint256",
          "name": "characterIndex",
          "type": "uint256"
        }
      ],
      "name": "CharacterNFTMinted",
      "type": "event"
    },
    {
      "anonymous": false,
      "inputs": [
        {
          "indexed": true,
          "internalType": "address",
          "name": "from",
          "type": "address"
        },
        {
          "indexed": true,
          "internalType": "address",
          "name": "to",
          "type": "address"
        },
        {
          "indexed": true,
          "internalType": "uint256",
          "name": "tokenId",
          "type": "uint256"
        }
      ],
      "name": "Transfer",
      "type": "event"
    },
    {
      "inputs": [
        {
          "internalType": "address",
          "name": "to",
          "type": "address"
        },
        {
          "internalType": "uint256",
          "name": "tokenId",
          "type": "uint256"
        }
      ],
      "name": "approve",
      "outputs": [],
      "stateMutability": "nonpayable",
      "type": "function"
    },
    {
      "inputs": [
        {
          "internalType": "int256",
          "name": "gambleDamage",
          "type": "int256"
        }
      ],
      "name": "attackBoss",
      "outputs": [],
      "stateMutability": "nonpayable",
      "type": "function"
    },
    {
      "inputs": [
        {
          "internalType": "address",
          "name": "owner",
          "type": "address"
        }
      ],
      "name": "balanceOf",
      "outputs": [
        {
          "internalType": "uint256",
          "name": "",
          "type": "uint256"
        }
      ],
      "stateMutability": "view",
      "type": "function"
    },
    {
      "inputs": [],
      "name": "bigBoss",
      "outputs": [
        {
          "internalType": "string",
          "name": "name",
          "type": "string"
        },
        {
          "internalType": "string",
          "name": "imageURI",
          "type": "string"
        },
        {
          "internalType": "uint256",
          "name": "hp",
          "type": "uint256"
        },
        {
          "internalType": "uint256",
          "name": "maxHp",
          "type": "uint256"
        },
        {
          "internalType": "uint256",
          "name": "attackDamage",
          "type": "uint256"
        }
      ],
      "stateMutability": "view",
      "type": "function"
    },
    {
      "inputs": [],
      "name": "checkIfUserHasNFT",
      "outputs": [
        {
          "components": [
            {
              "internalType": "uint256",
              "name": "characterIndex",
              "type": "uint256"
            },
            {
              "internalType": "string",
              "name": "name",
              "type": "string"
            },
            {
              "internalType": "string",
              "name": "imageURI",
              "type": "string"
            },
            {
              "internalType": "uint256",
              "name": "hp",
              "type": "uint256"
            },
            {
              "internalType": "uint256",
              "name": "maxHp",
              "type": "uint256"
            },
            {
              "internalType": "uint256",
              "name": "attackDamage",
              "type": "uint256"
            }
          ],
          "internalType": "struct MyEpicGame.CharacterAttributes",
          "name": "",
          "type": "tuple"
        }
      ],
      "stateMutability": "view",
      "type": "function"
    },
    {
      "inputs": [],
      "name": "getAllDefaultCharacters",
      "outputs": [
        {
          "components": [
            {
              "internalType": "uint256",
              "name": "characterIndex",
              "type": "uint256"
            },
            {
              "internalType": "string",
              "name": "name",
              "type": "string"
            },
            {
              "internalType": "string",
              "name": "imageURI",
              "type": "string"
            },
            {
              "internalType": "uint256",
              "name": "hp",
              "type": "uint256"
            },
            {
              "internalType": "uint256",
              "name": "maxHp",
              "type": "uint256"
            },
            {
              "internalType": "uint256",
              "name": "attackDamage",
              "type": "uint256"
            }
          ],
          "internalType": "struct MyEpicGame.CharacterAttributes[]",
          "name": "",
          "type": "tuple[]"
        }
      ],
      "stateMutability": "view",
      "type": "function"
    },
    {
      "inputs": [
        {
          "internalType": "uint256",
          "name": "tokenId",
          "type": "uint256"
        }
      ],
      "name": "getApproved",
      "outputs": [
        {
          "internalType": "address",
          "name": "",
          "type": "address"
        }
      ],
      "stateMutability": "view",
      "type": "function"
    },
    {
      "inputs": [],
      "name": "getBigBoss",
      "outputs": [
        {
          "components": [
            {
              "internalType": "string",
              "name": "name",
              "type": "string"
            },
            {
              "internalType": "string",
              "name": "imageURI",
              "type": "string"
            },
            {
              "internalType": "uint256",
              "name": "hp",
              "type": "uint256"
            },
            {
              "internalType": "uint256",
              "name": "maxHp",
              "type": "uint256"
            },
            {
              "internalType": "uint256",
              "name": "attackDamage",
              "type": "uint256"
            }
          ],
          "internalType": "struct MyEpicGame.BigBoss",
          "name": "",
          "type": "tuple"
        }
      ],
      "stateMutability": "view",
      "type": "function"
    },
    {
      "inputs": [
        {
          "internalType": "address",
          "name": "owner",
          "type": "address"
        },
        {
          "internalType": "address",
          "name": "operator",
          "type": "address"
        }
      ],
      "name": "isApprovedForAll",
      "outputs": [
        {
          "internalType": "bool",
          "name": "",
          "type": "bool"
        }
      ],
      "stateMutability": "view",
      "type": "function"
    },
    {
      "inputs": [
        {
          "internalType": "uint256",
          "name": "_characterIndex",
          "type": "uint256"
        }
      ],
      "name": "mintCharacterNFT",
      "outputs": [],
      "stateMutability": "nonpayable",
      "type": "function"
    },
    {
      "inputs": [],
      "name": "name",
      "outputs": [
        {
          "internalType": "string",
          "name": "",
          "type": "string"
        }
      ],
      "stateMutability": "view",
      "type": "function"
    },
    {
      "inputs": [
        {
          "internalType": "uint256",
          "name": "",
          "type": "uint256"
        }
      ],
      "name": "nftHolderAttributes",
      "outputs": [
        {
          "internalType": "uint256",
          "name": "characterIndex",
          "type": "uint256"
        },
        {
          "internalType": "string",
          "name": "name",
          "type": "string"
        },
        {
          "internalType": "string",
          "name": "imageURI",
          "type": "string"
        },
        {
          "internalType": "uint256",
          "name": "hp",
          "type": "uint256"
        },
        {
          "internalType": "uint256",
          "name": "maxHp",
          "type": "uint256"
        },
        {
          "internalType": "uint256",
          "name": "attackDamage",
          "type": "uint256"
        }
      ],
      "stateMutability": "view",
      "type": "function"
    },
    {
      "inputs": [
        {
          "internalType": "address",
          "name": "",
          "type": "address"
        }
      ],
      "name": "nftHolders",
      "outputs": [
        {
          "internalType": "uint256",
          "name": "",
          "type": "uint256"
        }
      ],
      "stateMutability": "view",
      "type": "function"
    },
    {
      "inputs": [
        {
          "internalType": "uint256",
          "name": "tokenId",
          "type": "uint256"
        }
      ],
      "name": "ownerOf",
      "outputs": [
        {
          "internalType": "address",
          "name": "",
          "type": "address"
        }
      ],
      "stateMutability": "view",
      "type": "function"
    },
    {
      "inputs": [
        {
          "internalType": "address",
          "name": "from",
          "type": "address"
        },
        {
          "internalType": "address",
          "name": "to",
          "type": "address"
        },
        {
          "internalType": "uint256",
          "name": "tokenId",
          "type": "uint256"
        }
      ],
      "name": "safeTransferFrom",
      "outputs": [],
      "stateMutability": "nonpayable",
      "type": "function"
    },
    {
      "inputs": [
        {
          "internalType": "address",
          "name": "from",
          "type": "address"
        },
        {
          "internalType": "address",
          "name": "to",
          "type": "address"
        },
        {
          "internalType": "uint256",
          "name": "tokenId",
          "type": "uint256"
        },
        {
          "internalType": "bytes",
          "name": "_data",
          "type": "bytes"
        }
      ],
      "name": "safeTransferFrom",
      "outputs": [],
      "stateMutability": "nonpayable",
      "type": "function"
    },
    {
      "inputs": [
        {
          "internalType": "address",
          "name": "operator",
          "type": "address"
        },
        {
          "internalType": "bool",
          "name": "approved",
          "type": "bool"
        }
      ],
      "name": "setApprovalForAll",
      "outputs": [],
      "stateMutability": "nonpayable",
      "type": "function"
    },
    {
      "inputs": [
        {
          "internalType": "bytes4",
          "name": "interfaceId",
          "type": "bytes4"
        }
      ],
      "name": "supportsInterface",
      "outputs": [
        {
          "internalType": "bool",
          "name": "",
          "type": "bool"
        }
      ],
      "stateMutability": "view",
      "type": "function"
    },
    {
      "inputs": [],
      "name": "symbol",
      "outputs": [
        {
          "internalType": "string",
          "name": "",
          "type": "string"
        }
      ],
      "stateMutability": "view",
      "type": "function"
    },
    {
      "inputs": [
        {
          "internalType": "uint256",
          "name": "_tokenId",
          "type": "uint256"
        }
      ],
      "name": "tokenURI",
      "outputs": [
        {
          "internalType": "string",
          "name": "",
          "type": "string"
        }
      ],
      "stateMutability": "view",
      "type": "function"
    },
    {
      "inputs": [
        {
          "internalType": "address",
          "name": "from",
          "type": "address"
        },
        {
          "internalType": "address",
          "name": "to",
          "type": "address"
        },
        {
          "internalType": "uint256",
          "name": "tokenId",
          "type": "uint256"
        }
      ],
      "name": "transferFrom",
      "outputs": [],
      "stateMutability": "nonpayable",
      "type": "function"
    }
  ],
  "bytecode": "0x60806040523480156200001157600080fd5b50604051620059ed380380620059ed833981810160405281019062000037919062000a85565b6040518060400160405280600881526020017f506f6b656d6f6e730000000000000000000000000000000000000000000000008152506040518060400160405280600781526020017f504f4b454d4f4e000000000000000000000000000000000000000000000000008152508160009080519060200190620000bb929190620007ed565b508060019080519060200190620000d4929190620007ed565b5050506040518060a0016040528085815260200184815260200183815260200183815260200182815250600660008201518160000190805190602001906200011e929190620007ed565b5060208201518160010190805190602001906200013d929190620007ed565b50604082015181600201556060820151816003015560808201518160040155905050620002c06040518060600160405280602a8152602001620059c3602a9139600660000180546200018f9062000e08565b80601f0160208091040260200160405190810160405280929190818152602001828054620001bd9062000e08565b80156200020e5780601f10620001e2576101008083540402835291602001916200020e565b820191906000526020600020905b815481529060010190602001808311620001f057829003601f168201915b5050505050600660020154600660010180546200022b9062000e08565b80601f0160208091040260200160405190810160405280929190818152602001828054620002599062000e08565b8015620002aa5780601f106200027e57610100808354040283529160200191620002aa565b820191906000526020600020905b8154815290600101906020018083116200028c57829003601f168201915b50505050506200070260201b62001bf11760201c565b60005b8851811015620006dc57600c6040518060c001604052808381526020018b84815181106200031a577f4e487b7100000000000000000000000000000000000000000000000000000000600052603260045260246000fd5b602002602001015181526020018a848151811062000361577f4e487b7100000000000000000000000000000000000000000000000000000000600052603260045260246000fd5b60200260200101518152602001898481518110620003a8577f4e487b7100000000000000000000000000000000000000000000000000000000600052603260045260246000fd5b60200260200101518152602001898481518110620003ef577f4e487b7100000000000000000000000000000000000000000000000000000000600052603260045260246000fd5b6020026020010151815260200188848151811062000436577f4e487b7100000000000000000000000000000000000000000000000000000000600052603260045260246000fd5b6020026020010151815250908060018154018082558091505060019003906000526020600020906006020160009091909190915060008201518160000155602082015181600101908051906020019062000492929190620007ed565b506040820151816002019080519060200190620004b1929190620007ed565b50606082015181600301556080820151816004015560a0820151816005015550506000600c82815481106200050f577f4e487b7100000000000000000000000000000000000000000000000000000000600052603260045260246000fd5b90600052602060002090600602016040518060c001604052908160008201548152602001600182018054620005449062000e08565b80601f0160208091040260200160405190810160405280929190818152602001828054620005729062000e08565b8015620005c35780601f106200059757610100808354040283529160200191620005c3565b820191906000526020600020905b815481529060010190602001808311620005a557829003601f168201915b50505050508152602001600282018054620005de9062000e08565b80601f01602080910402602001604051908101604052809291908181526020018280546200060c9062000e08565b80156200065d5780601f1062000631576101008083540402835291602001916200065d565b820191906000526020600020905b8154815290600101906020018083116200063f57829003601f168201915b5050505050815260200160038201548152602001600482015481526020016005820154815250509050620006c46040518060600160405280602581526020016200599e602591398260200151836060015184604001516200070260201b62001bf11760201c565b50600181620006d4919062000d6b565b9050620002c3565b50620006f4600b620007ae60201b62001c931760201c565b505050505050505062000f2c565b620007a8848484846040516024016200071f949392919062000c30565b6040516020818303038152906040527f8d142cdd000000000000000000000000000000000000000000000000000000007bffffffffffffffffffffffffffffffffffffffffffffffffffffffff19166020820180517bffffffffffffffffffffffffffffffffffffffffffffffffffffffff8381831617835250505050620007c460201b60201c565b50505050565b6001816000016000828254019250508190555050565b60008151905060006a636f6e736f6c652e6c6f679050602083016000808483855afa5050505050565b828054620007fb9062000e08565b90600052602060002090601f0160209004810192826200081f57600085556200086b565b82601f106200083a57805160ff19168380011785556200086b565b828001600101855582156200086b579182015b828111156200086a5782518255916020019190600101906200084d565b5b5090506200087a91906200087e565b5090565b5b80821115620008995760008160009055506001016200087f565b5090565b6000620008b4620008ae8462000cbb565b62000c92565b90508083825260208201905082856020860282011115620008d457600080fd5b60005b858110156200092357815167ffffffffffffffff811115620008f857600080fd5b80860162000907898262000a41565b85526020850194506020840193505050600181019050620008d7565b5050509392505050565b6000620009446200093e8462000cea565b62000c92565b905080838252602082019050828560208602820111156200096457600080fd5b60005b858110156200099857816200097d888262000a6e565b84526020840193506020830192505060018101905062000967565b5050509392505050565b6000620009b9620009b38462000d19565b62000c92565b905082815260208101848484011115620009d257600080fd5b620009df84828562000dd2565b509392505050565b600082601f830112620009f957600080fd5b815162000a0b8482602086016200089d565b91505092915050565b600082601f83011262000a2657600080fd5b815162000a388482602086016200092d565b91505092915050565b600082601f83011262000a5357600080fd5b815162000a65848260208601620009a2565b91505092915050565b60008151905062000a7f8162000f12565b92915050565b600080600080600080600080610100898b03121562000aa357600080fd5b600089015167ffffffffffffffff81111562000abe57600080fd5b62000acc8b828c01620009e7565b985050602089015167ffffffffffffffff81111562000aea57600080fd5b62000af88b828c01620009e7565b975050604089015167ffffffffffffffff81111562000b1657600080fd5b62000b248b828c0162000a14565b965050606089015167ffffffffffffffff81111562000b4257600080fd5b62000b508b828c0162000a14565b955050608089015167ffffffffffffffff81111562000b6e57600080fd5b62000b7c8b828c0162000a41565b94505060a089015167ffffffffffffffff81111562000b9a57600080fd5b62000ba88b828c0162000a41565b93505060c062000bbb8b828c0162000a6e565b92505060e062000bce8b828c0162000a6e565b9150509295985092959890939650565b600062000beb8262000d4f565b62000bf7818562000d5a565b935062000c0981856020860162000dd2565b62000c148162000f01565b840191505092915050565b62000c2a8162000dc8565b82525050565b6000608082019050818103600083015262000c4c818762000bde565b9050818103602083015262000c62818662000bde565b905062000c73604083018562000c1f565b818103606083015262000c87818462000bde565b905095945050505050565b600062000c9e62000cb1565b905062000cac828262000e3e565b919050565b6000604051905090565b600067ffffffffffffffff82111562000cd95762000cd862000ed2565b5b602082029050602081019050919050565b600067ffffffffffffffff82111562000d085762000d0762000ed2565b5b602082029050602081019050919050565b600067ffffffffffffffff82111562000d375762000d3662000ed2565b5b62000d428262000f01565b9050602081019050919050565b600081519050919050565b600082825260208201905092915050565b600062000d788262000dc8565b915062000d858362000dc8565b9250827fffffffffffffffffffffffffffffffffffffffffffffffffffffffffffffffff0382111562000dbd5762000dbc62000e74565b5b828201905092915050565b6000819050919050565b60005b8381101562000df257808201518184015260208101905062000dd5565b8381111562000e02576000848401525b50505050565b6000600282049050600182168062000e2157607f821691505b6020821081141562000e385762000e3762000ea3565b5b50919050565b62000e498262000f01565b810181811067ffffffffffffffff8211171562000e6b5762000e6a62000ed2565b5b80604052505050565b7f4e487b7100000000000000000000000000000000000000000000000000000000600052601160045260246000fd5b7f4e487b7100000000000000000000000000000000000000000000000000000000600052602260045260246000fd5b7f4e487b7100000000000000000000000000000000000000000000000000000000600052604160045260246000fd5b6000601f19601f8301169050919050565b62000f1d8162000dc8565b811462000f2957600080fd5b50565b614a628062000f3c6000396000f3fe608060405234801561001057600080fd5b50600436106101375760003560e01c80637df124a1116100b8578063b88d4fde1161007c578063b88d4fde14610369578063b953084e14610385578063c87b56dd146103a3578063c8cf27f4146103d3578063e985e9c5146103f1578063f8b81ef71461042157610137565b80637df124a1146102a857806395d89b41146102d857806398da4c95146102f6578063a22cb4651461032b578063a9c326791461034757610137565b806323b872dd116100ff57806323b872dd146101f457806342842e0e14610210578063493674171461022c5780636352211e1461024857806370a082311461027857610137565b806301ffc9a71461013c5780630665f9611461016c57806306fdde031461018a578063081812fc146101a8578063095ea7b3146101d8575b600080fd5b61015660048036038101906101519190613079565b61043d565b6040516101639190613907565b60405180910390f35b61017461051f565b6040516101819190613ca0565b60405180910390f35b61019261067b565b60405161019f9190613922565b60405180910390f35b6101c260048036038101906101bd91906130f4565b61070d565b6040516101cf9190613847565b60405180910390f35b6101f260048036038101906101ed919061303d565b610792565b005b61020e60048036038101906102099190612f37565b6108aa565b005b61022a60048036038101906102259190612f37565b61090a565b005b610246600480360381019061024191906130cb565b61092a565b005b610262600480360381019061025d91906130f4565b610cbf565b60405161026f9190613847565b60405180910390f35b610292600480360381019061028d9190612ed2565b610d71565b60405161029f9190613ce4565b60405180910390f35b6102c260048036038101906102bd9190612ed2565b610e29565b6040516102cf9190613ce4565b60405180910390f35b6102e0610e41565b6040516102ed9190613922565b60405180910390f35b610310600480360381019061030b91906130f4565b610ed3565b60405161032296959493929190613cff565b60405180910390f35b61034560048036038101906103409190613001565b61101f565b005b61034f611035565b6040516103609594939291906139f1565b60405180910390f35b610383600480360381019061037e9190612f86565b611169565b005b61038d6111cb565b60405161039a91906138e5565b60405180910390f35b6103bd60048036038101906103b891906130f4565b611376565b6040516103ca9190613922565b60405180910390f35b6103db611591565b6040516103e89190613cc2565b60405180910390f35b61040b60048036038101906104069190612efb565b611769565b6040516104189190613907565b60405180910390f35b61043b600480360381019061043691906130f4565b6117fd565b005b60007f80ac58cd000000000000000000000000000000000000000000000000000000007bffffffffffffffffffffffffffffffffffffffffffffffffffffffff1916827bffffffffffffffffffffffffffffffffffffffffffffffffffffffff1916148061050857507f5b5e139f000000000000000000000000000000000000000000000000000000007bffffffffffffffffffffffffffffffffffffffffffffffffffffffff1916827bffffffffffffffffffffffffffffffffffffffffffffffffffffffff1916145b80610518575061051782611ca9565b5b9050919050565b610527612ce4565b60066040518060a0016040529081600082018054610544906140e3565b80601f0160208091040260200160405190810160405280929190818152602001828054610570906140e3565b80156105bd5780601f10610592576101008083540402835291602001916105bd565b820191906000526020600020905b8154815290600101906020018083116105a057829003601f168201915b505050505081526020016001820180546105d6906140e3565b80601f0160208091040260200160405190810160405280929190818152602001828054610602906140e3565b801561064f5780601f106106245761010080835404028352916020019161064f565b820191906000526020600020905b81548152906001019060200180831161063257829003601f168201915b505050505081526020016002820154815260200160038201548152602001600482015481525050905090565b60606000805461068a906140e3565b80601f01602080910402602001604051908101604052809291908181526020018280546106b6906140e3565b80156107035780601f106106d857610100808354040283529160200191610703565b820191906000526020600020905b8154815290600101906020018083116106e657829003601f168201915b5050505050905090565b600061071882611d13565b610757576040517f08c379a000000000000000000000000000000000000000000000000000000000815260040161074e90613c40565b60405180910390fd5b6004600083815260200190815260200160002060009054906101000a900473ffffffffffffffffffffffffffffffffffffffff169050919050565b600061079d82610cbf565b90508073ffffffffffffffffffffffffffffffffffffffff168373ffffffffffffffffffffffffffffffffffffffff16141561080e576040517f08c379a000000000000000000000000000000000000000000000000000000000815260040161080590613c60565b60405180910390fd5b8073ffffffffffffffffffffffffffffffffffffffff1661082d611d7f565b73ffffffffffffffffffffffffffffffffffffffff16148061085c575061085b81610856611d7f565b611769565b5b61089b576040517f08c379a000000000000000000000000000000000000000000000000000000000815260040161089290613ba0565b60405180910390fd5b6108a58383611d87565b505050565b6108bb6108b5611d7f565b82611e40565b6108fa576040517f08c379a00000000000000000000000000000000000000000000000000000000081526004016108f190613c80565b60405180910390fd5b610905838383611f1e565b505050565b61092583838360405180602001604052806000815250611169565b505050565b6000600e60003373ffffffffffffffffffffffffffffffffffffffff1673ffffffffffffffffffffffffffffffffffffffff1681526020019081526020016000205490506000600d6000838152602001908152602001600020905060008382600501546109979190613e7a565b9050610a4d6040518060600160405280603c81526020016149f1603c91398360010180546109c4906140e3565b80601f01602080910402602001604051908101604052809291908181526020018280546109f0906140e3565b8015610a3d5780601f10610a1257610100808354040283529160200191610a3d565b820191906000526020600020905b815481529060010190602001808311610a2057829003601f168201915b5050505050846003015484612185565b610b256040518060400160405280601b81526020017f426f73732025732068617320257320485020616e64202573204144000000000081525060066000018054610a96906140e3565b80601f0160208091040260200160405190810160405280929190818152602001828054610ac2906140e3565b8015610b0f5780601f10610ae457610100808354040283529160200191610b0f565b820191906000526020600020905b815481529060010190602001808311610af257829003601f168201915b5050505050600660020154600660040154612185565b6000826003015411610b6c576040517f08c379a0000000000000000000000000000000000000000000000000000000008152600401610b6390613c00565b60405180910390fd5b600060066002015411610bb4576040517f08c379a0000000000000000000000000000000000000000000000000000000008152600401610bab90613b00565b60405180910390fd5b806006600201541015610bd1576000600660020181905550610bec565b80600660020154610be29190613fef565b6006600201819055505b60066004015482600301541015610c0c5760008260030181905550610c2a565b6006600401548260030154610c219190613fef565b82600301819055505b610c5160405180606001604052806025815260200161493660259139600660020154612227565b610c7760405180606001604052806028815260200161499b602891398360030154612227565b7f838ab28464562786a6c4ab2311964b82fa60bd9b14aa7e856af1f3f18d41a4146006600201548360030154604051610cb1929190613d6e565b60405180910390a150505050565b6000806002600084815260200190815260200160002060009054906101000a900473ffffffffffffffffffffffffffffffffffffffff169050600073ffffffffffffffffffffffffffffffffffffffff168173ffffffffffffffffffffffffffffffffffffffff161415610d68576040517f08c379a0000000000000000000000000000000000000000000000000000000008152600401610d5f90613be0565b60405180910390fd5b80915050919050565b60008073ffffffffffffffffffffffffffffffffffffffff168273ffffffffffffffffffffffffffffffffffffffff161415610de2576040517f08c379a0000000000000000000000000000000000000000000000000000000008152600401610dd990613bc0565b60405180910390fd5b600360008373ffffffffffffffffffffffffffffffffffffffff1673ffffffffffffffffffffffffffffffffffffffff168152602001908152602001600020549050919050565b600e6020528060005260406000206000915090505481565b606060018054610e50906140e3565b80601f0160208091040260200160405190810160405280929190818152602001828054610e7c906140e3565b8015610ec95780601f10610e9e57610100808354040283529160200191610ec9565b820191906000526020600020905b815481529060010190602001808311610eac57829003601f168201915b5050505050905090565b600d602052806000526040600020600091509050806000015490806001018054610efc906140e3565b80601f0160208091040260200160405190810160405280929190818152602001828054610f28906140e3565b8015610f755780601f10610f4a57610100808354040283529160200191610f75565b820191906000526020600020905b815481529060010190602001808311610f5857829003601f168201915b505050505090806002018054610f8a906140e3565b80601f0160208091040260200160405190810160405280929190818152602001828054610fb6906140e3565b80156110035780601f10610fd857610100808354040283529160200191611003565b820191906000526020600020905b815481529060010190602001808311610fe657829003601f168201915b5050505050908060030154908060040154908060050154905086565b61103161102a611d7f565b83836122c3565b5050565b6006806000018054611046906140e3565b80601f0160208091040260200160405190810160405280929190818152602001828054611072906140e3565b80156110bf5780601f10611094576101008083540402835291602001916110bf565b820191906000526020600020905b8154815290600101906020018083116110a257829003601f168201915b5050505050908060010180546110d4906140e3565b80601f0160208091040260200160405190810160405280929190818152602001828054611100906140e3565b801561114d5780601f106111225761010080835404028352916020019161114d565b820191906000526020600020905b81548152906001019060200180831161113057829003601f168201915b5050505050908060020154908060030154908060040154905085565b61117a611174611d7f565b83611e40565b6111b9576040517f08c379a00000000000000000000000000000000000000000000000000000000081526004016111b090613c80565b60405180910390fd5b6111c584848484612430565b50505050565b6060600c805480602002602001604051908101604052809291908181526020016000905b8282101561136d57838290600052602060002090600602016040518060c00160405290816000820154815260200160018201805461122c906140e3565b80601f0160208091040260200160405190810160405280929190818152602001828054611258906140e3565b80156112a55780601f1061127a576101008083540402835291602001916112a5565b820191906000526020600020905b81548152906001019060200180831161128857829003601f168201915b505050505081526020016002820180546112be906140e3565b80601f01602080910402602001604051908101604052809291908181526020018280546112ea906140e3565b80156113375780601f1061130c57610100808354040283529160200191611337565b820191906000526020600020905b81548152906001019060200180831161131a57829003601f168201915b505050505081526020016003820154815260200160048201548152602001600582015481525050815260200190600101906111ef565b50505050905090565b60606000600d60008481526020019081526020016000206040518060c0016040529081600082015481526020016001820180546113b2906140e3565b80601f01602080910402602001604051908101604052809291908181526020018280546113de906140e3565b801561142b5780601f106114005761010080835404028352916020019161142b565b820191906000526020600020905b81548152906001019060200180831161140e57829003601f168201915b50505050508152602001600282018054611444906140e3565b80601f0160208091040260200160405190810160405280929190818152602001828054611470906140e3565b80156114bd5780601f10611492576101008083540402835291602001916114bd565b820191906000526020600020905b8154815290600101906020018083116114a057829003601f168201915b505050505081526020016003820154815260200160048201548152602001600582015481525050905060006114f5826060015161248c565b90506000611506836080015161248c565b905060006115178460a0015161248c565b9050600061155d856020015161152c8961248c565b876040015187878760405160200161154996959493929190613780565b604051602081830303815290604052612639565b90506000816040516020016115729190613825565b6040516020818303038152906040529050809650505050505050919050565b611599612d13565b6000600e60003373ffffffffffffffffffffffffffffffffffffffff1673ffffffffffffffffffffffffffffffffffffffff168152602001908152602001600020549050600081111561175857600d60008281526020019081526020016000206040518060c00160405290816000820154815260200160018201805461161e906140e3565b80601f016020809104026020016040519081016040528092919081815260200182805461164a906140e3565b80156116975780601f1061166c57610100808354040283529160200191611697565b820191906000526020600020905b81548152906001019060200180831161167a57829003601f168201915b505050505081526020016002820180546116b0906140e3565b80601f01602080910402602001604051908101604052809291908181526020018280546116dc906140e3565b80156117295780601f106116fe57610100808354040283529160200191611729565b820191906000526020600020905b81548152906001019060200180831161170c57829003601f168201915b505050505081526020016003820154815260200160048201548152602001600582015481525050915050611766565b611760612d13565b80925050505b90565b6000600560008473ffffffffffffffffffffffffffffffffffffffff1673ffffffffffffffffffffffffffffffffffffffff16815260200190815260200160002060008373ffffffffffffffffffffffffffffffffffffffff1673ffffffffffffffffffffffffffffffffffffffff16815260200190815260200160002060009054906101000a900460ff16905092915050565b6000611809600b6127f7565b90506118153382612805565b6040518060c00160405280838152602001600c8481548110611860577f4e487b7100000000000000000000000000000000000000000000000000000000600052603260045260246000fd5b9060005260206000209060060201600101805461187c906140e3565b80601f01602080910402602001604051908101604052809291908181526020018280546118a8906140e3565b80156118f55780601f106118ca576101008083540402835291602001916118f5565b820191906000526020600020905b8154815290600101906020018083116118d857829003601f168201915b50505050508152602001600c8481548110611939577f4e487b7100000000000000000000000000000000000000000000000000000000600052603260045260246000fd5b90600052602060002090600602016002018054611955906140e3565b80601f0160208091040260200160405190810160405280929190818152602001828054611981906140e3565b80156119ce5780601f106119a3576101008083540402835291602001916119ce565b820191906000526020600020905b8154815290600101906020018083116119b157829003601f168201915b50505050508152602001600c8481548110611a12577f4e487b7100000000000000000000000000000000000000000000000000000000600052603260045260246000fd5b9060005260206000209060060201600301548152602001600c8481548110611a63577f4e487b7100000000000000000000000000000000000000000000000000000000600052603260045260246000fd5b9060005260206000209060060201600401548152602001600c8481548110611ab4577f4e487b7100000000000000000000000000000000000000000000000000000000600052603260045260246000fd5b906000526020600020906006020160050154815250600d6000838152602001908152602001600020600082015181600001556020820151816001019080519060200190611b02929190612d49565b506040820151816002019080519060200190611b1f929190612d49565b50606082015181600301556080820151816004015560a08201518160050155905050611b646040518060600160405280602e81526020016149c3602e91398284612823565b80600e60003373ffffffffffffffffffffffffffffffffffffffff1673ffffffffffffffffffffffffffffffffffffffff16815260200190815260200160002081905550611bb2600b611c93565b7f4bc303fd457a97b4691b9af582ce71868a3d258638c8d4f8c60988a0f0bfb8cd338284604051611be5939291906138ae565b60405180910390a15050565b611c8d84848484604051602401611c0b9493929190613944565b6040516020818303038152906040527f8d142cdd000000000000000000000000000000000000000000000000000000007bffffffffffffffffffffffffffffffffffffffffffffffffffffffff19166020820180517bffffffffffffffffffffffffffffffffffffffffffffffffffffffff83818316178352505050506128c2565b50505050565b6001816000016000828254019250508190555050565b60007f01ffc9a7000000000000000000000000000000000000000000000000000000007bffffffffffffffffffffffffffffffffffffffffffffffffffffffff1916827bffffffffffffffffffffffffffffffffffffffffffffffffffffffff1916149050919050565b60008073ffffffffffffffffffffffffffffffffffffffff166002600084815260200190815260200160002060009054906101000a900473ffffffffffffffffffffffffffffffffffffffff1673ffffffffffffffffffffffffffffffffffffffff1614159050919050565b600033905090565b816004600083815260200190815260200160002060006101000a81548173ffffffffffffffffffffffffffffffffffffffff021916908373ffffffffffffffffffffffffffffffffffffffff160217905550808273ffffffffffffffffffffffffffffffffffffffff16611dfa83610cbf565b73ffffffffffffffffffffffffffffffffffffffff167f8c5be1e5ebec7d5bd14f71427d1e84f3dd0314c0f7b2291e5b200ac8c7c3b92560405160405180910390a45050565b6000611e4b82611d13565b611e8a576040517f08c379a0000000000000000000000000000000000000000000000000000000008152600401611e8190613b80565b60405180910390fd5b6000611e9583610cbf565b90508073ffffffffffffffffffffffffffffffffffffffff168473ffffffffffffffffffffffffffffffffffffffff161480611f0457508373ffffffffffffffffffffffffffffffffffffffff16611eec8461070d565b73ffffffffffffffffffffffffffffffffffffffff16145b80611f155750611f148185611769565b5b91505092915050565b8273ffffffffffffffffffffffffffffffffffffffff16611f3e82610cbf565b73ffffffffffffffffffffffffffffffffffffffff1614611f94576040517f08c379a0000000000000000000000000000000000000000000000000000000008152600401611f8b90613ae0565b60405180910390fd5b600073ffffffffffffffffffffffffffffffffffffffff168273ffffffffffffffffffffffffffffffffffffffff161415612004576040517f08c379a0000000000000000000000000000000000000000000000000000000008152600401611ffb90613b40565b60405180910390fd5b61200f8383836128eb565b61201a600082611d87565b6001600360008573ffffffffffffffffffffffffffffffffffffffff1673ffffffffffffffffffffffffffffffffffffffff168152602001908152602001600020600082825461206a9190613fef565b925050819055506001600360008473ffffffffffffffffffffffffffffffffffffffff1673ffffffffffffffffffffffffffffffffffffffff16815260200190815260200160002060008282546120c19190613f0e565b92505081905550816002600083815260200190815260200160002060006101000a81548173ffffffffffffffffffffffffffffffffffffffff021916908373ffffffffffffffffffffffffffffffffffffffff160217905550808273ffffffffffffffffffffffffffffffffffffffff168473ffffffffffffffffffffffffffffffffffffffff167fddf252ad1be2c89b69c2b068fc378daa952ba7f163c4a11628f55a4df523b3ef60405160405180910390a46121808383836128f0565b505050565b6122218484848460405160240161219f949392919061399e565b6040516020818303038152906040527fd5cf17d0000000000000000000000000000000000000000000000000000000007bffffffffffffffffffffffffffffffffffffffffffffffffffffffff19166020820180517bffffffffffffffffffffffffffffffffffffffffffffffffffffffff83818316178352505050506128c2565b50505050565b6122bf828260405160240161223d929190613a52565b6040516020818303038152906040527f9710a9d0000000000000000000000000000000000000000000000000000000007bffffffffffffffffffffffffffffffffffffffffffffffffffffffff19166020820180517bffffffffffffffffffffffffffffffffffffffffffffffffffffffff83818316178352505050506128c2565b5050565b8173ffffffffffffffffffffffffffffffffffffffff168373ffffffffffffffffffffffffffffffffffffffff161415612332576040517f08c379a000000000000000000000000000000000000000000000000000000000815260040161232990613b60565b60405180910390fd5b80600560008573ffffffffffffffffffffffffffffffffffffffff1673ffffffffffffffffffffffffffffffffffffffff16815260200190815260200160002060008473ffffffffffffffffffffffffffffffffffffffff1673ffffffffffffffffffffffffffffffffffffffff16815260200190815260200160002060006101000a81548160ff0219169083151502179055508173ffffffffffffffffffffffffffffffffffffffff168373ffffffffffffffffffffffffffffffffffffffff167f17307eab39ab6107e8899845ad3d59bd9653f200f220920489ca2b5937696c31836040516124239190613907565b60405180910390a3505050565b61243b848484611f1e565b612447848484846128f5565b612486576040517f08c379a000000000000000000000000000000000000000000000000000000000815260040161247d90613ac0565b60405180910390fd5b50505050565b606060008214156124d4576040518060400160405280600181526020017f30000000000000000000000000000000000000000000000000000000000000008152509050612634565b600082905060005b600082146125065780806124ef90614146565b915050600a826124ff9190613f64565b91506124dc565b60008167ffffffffffffffff811115612548577f4e487b7100000000000000000000000000000000000000000000000000000000600052604160045260246000fd5b6040519080825280601f01601f19166020018201604052801561257a5781602001600182028036833780820191505090505b5090505b6000851461262d576001826125939190613fef565b9150600a856125a2919061418f565b60306125ae9190613f0e565b60f81b8183815181106125ea577f4e487b7100000000000000000000000000000000000000000000000000000000600052603260045260246000fd5b60200101907effffffffffffffffffffffffffffffffffffffffffffffffffffffffffffff1916908160001a905350600a856126269190613f64565b945061257e565b8093505050505b919050565b6060600082519050600081141561266257604051806020016040528060008152509150506127f2565b600060036002836126739190613f0e565b61267d9190613f64565b60046126899190613f95565b9050600060208261269a9190613f0e565b67ffffffffffffffff8111156126d9577f4e487b7100000000000000000000000000000000000000000000000000000000600052604160045260246000fd5b6040519080825280601f01601f19166020018201604052801561270b5781602001600182028036833780820191505090505b509050600060405180606001604052806040815260200161495b604091399050600181016020830160005b868110156127af5760038101905062ffffff818a015116603f8160121c168401518060081b905060ff603f83600c1c1686015116810190508060081b905060ff603f8360061c1686015116810190508060081b905060ff603f831686015116810190508060e01b90508084526004840193505050612736565b5060038606600181146127c957600281146127d9576127e4565b613d3d60f01b60028303526127e4565b603d60f81b60018303525b508484525050819450505050505b919050565b600081600001549050919050565b61281f828260405180602001604052806000815250612a8c565b5050565b6128bd83838360405160240161283b93929190613a82565b6040516020818303038152906040527f969cdd03000000000000000000000000000000000000000000000000000000007bffffffffffffffffffffffffffffffffffffffffffffffffffffffff19166020820180517bffffffffffffffffffffffffffffffffffffffffffffffffffffffff83818316178352505050506128c2565b505050565b60008151905060006a636f6e736f6c652e6c6f679050602083016000808483855afa5050505050565b505050565b505050565b60006129168473ffffffffffffffffffffffffffffffffffffffff16612ae7565b15612a7f578373ffffffffffffffffffffffffffffffffffffffff1663150b7a0261293f611d7f565b8786866040518563ffffffff1660e01b81526004016129619493929190613862565b602060405180830381600087803b15801561297b57600080fd5b505af19250505080156129ac57506040513d601f19601f820116820180604052508101906129a991906130a2565b60015b612a2f573d80600081146129dc576040519150601f19603f3d011682016040523d82523d6000602084013e6129e1565b606091505b50600081511415612a27576040517f08c379a0000000000000000000000000000000000000000000000000000000008152600401612a1e90613ac0565b60405180910390fd5b805181602001fd5b63150b7a0260e01b7bffffffffffffffffffffffffffffffffffffffffffffffffffffffff1916817bffffffffffffffffffffffffffffffffffffffffffffffffffffffff191614915050612a84565b600190505b949350505050565b612a968383612b0a565b612aa360008484846128f5565b612ae2576040517f08c379a0000000000000000000000000000000000000000000000000000000008152600401612ad990613ac0565b60405180910390fd5b505050565b6000808273ffffffffffffffffffffffffffffffffffffffff163b119050919050565b600073ffffffffffffffffffffffffffffffffffffffff168273ffffffffffffffffffffffffffffffffffffffff161415612b7a576040517f08c379a0000000000000000000000000000000000000000000000000000000008152600401612b7190613c20565b60405180910390fd5b612b8381611d13565b15612bc3576040517f08c379a0000000000000000000000000000000000000000000000000000000008152600401612bba90613b20565b60405180910390fd5b612bcf600083836128eb565b6001600360008473ffffffffffffffffffffffffffffffffffffffff1673ffffffffffffffffffffffffffffffffffffffff1681526020019081526020016000206000828254612c1f9190613f0e565b92505081905550816002600083815260200190815260200160002060006101000a81548173ffffffffffffffffffffffffffffffffffffffff021916908373ffffffffffffffffffffffffffffffffffffffff160217905550808273ffffffffffffffffffffffffffffffffffffffff16600073ffffffffffffffffffffffffffffffffffffffff167fddf252ad1be2c89b69c2b068fc378daa952ba7f163c4a11628f55a4df523b3ef60405160405180910390a4612ce0600083836128f0565b5050565b6040518060a0016040528060608152602001606081526020016000815260200160008152602001600081525090565b6040518060c001604052806000815260200160608152602001606081526020016000815260200160008152602001600081525090565b828054612d55906140e3565b90600052602060002090601f016020900481019282612d775760008555612dbe565b82601f10612d9057805160ff1916838001178555612dbe565b82800160010185558215612dbe579182015b82811115612dbd578251825591602001919060010190612da2565b5b509050612dcb9190612dcf565b5090565b5b80821115612de8576000816000905550600101612dd0565b5090565b6000612dff612dfa84613dbc565b613d97565b905082815260208101848484011115612e1757600080fd5b612e228482856140a1565b509392505050565b600081359050612e39816148c2565b92915050565b600081359050612e4e816148d9565b92915050565b600081359050612e63816148f0565b92915050565b600081519050612e78816148f0565b92915050565b600082601f830112612e8f57600080fd5b8135612e9f848260208601612dec565b91505092915050565b600081359050612eb781614907565b92915050565b600081359050612ecc8161491e565b92915050565b600060208284031215612ee457600080fd5b6000612ef284828501612e2a565b91505092915050565b60008060408385031215612f0e57600080fd5b6000612f1c85828601612e2a565b9250506020612f2d85828601612e2a565b9150509250929050565b600080600060608486031215612f4c57600080fd5b6000612f5a86828701612e2a565b9350506020612f6b86828701612e2a565b9250506040612f7c86828701612ebd565b9150509250925092565b60008060008060808587031215612f9c57600080fd5b6000612faa87828801612e2a565b9450506020612fbb87828801612e2a565b9350506040612fcc87828801612ebd565b925050606085013567ffffffffffffffff811115612fe957600080fd5b612ff587828801612e7e565b91505092959194509250565b6000806040838503121561301457600080fd5b600061302285828601612e2a565b925050602061303385828601612e3f565b9150509250929050565b6000806040838503121561305057600080fd5b600061305e85828601612e2a565b925050602061306f85828601612ebd565b9150509250929050565b60006020828403121561308b57600080fd5b600061309984828501612e54565b91505092915050565b6000602082840312156130b457600080fd5b60006130c284828501612e69565b91505092915050565b6000602082840312156130dd57600080fd5b60006130eb84828501612ea8565b91505092915050565b60006020828403121561310657600080fd5b600061311484828501612ebd565b91505092915050565b60006131298383613642565b905092915050565b61313a81614023565b82525050565b600061314b82613dfd565b6131558185613e2b565b93508360208202850161316785613ded565b8060005b858110156131a35784840389528151613184858261311d565b945061318f83613e1e565b925060208a0199505060018101905061316b565b50829750879550505050505092915050565b6131be81614035565b82525050565b60006131cf82613e08565b6131d98185613e3c565b93506131e98185602086016140b0565b6131f28161427c565b840191505092915050565b600061320882613e13565b6132128185613e4d565b93506132228185602086016140b0565b61322b8161427c565b840191505092915050565b600061324182613e13565b61324b8185613e5e565b935061325b8185602086016140b0565b6132648161427c565b840191505092915050565b600061327a82613e13565b6132848185613e6f565b93506132948185602086016140b0565b80840191505092915050565b60006132ad600b83613e6f565b91506132b88261428d565b600b82019050919050565b60006132d0603283613e5e565b91506132db826142b6565b604082019050919050565b60006132f3602583613e5e565b91506132fe82614305565b604082019050919050565b6000613316602883613e5e565b915061332182614354565b604082019050919050565b6000613339601c83613e5e565b9150613344826143a3565b602082019050919050565b600061335c600e83613e6f565b9150613367826143cc565b600e82019050919050565b600061337f602483613e5e565b915061338a826143f5565b604082019050919050565b60006133a2601983613e5e565b91506133ad82614444565b602082019050919050565b60006133c5602c83613e5e565b91506133d08261446d565b604082019050919050565b60006133e8603883613e5e565b91506133f3826144bc565b604082019050919050565b600061340b602a83613e5e565b91506134168261450b565b604082019050919050565b600061342e602983613e5e565b91506134398261455a565b604082019050919050565b6000613451602d83613e5e565b915061345c826145a9565b604082019050919050565b6000613474600483613e6f565b915061347f826145f8565b600482019050919050565b6000613497602083613e5e565b91506134a282614621565b602082019050919050565b60006134ba602c83613e5e565b91506134c58261464a565b604082019050919050565b60006134dd600a83613e6f565b91506134e882614699565b600a82019050919050565b6000613500602183613e5e565b915061350b826146c2565b604082019050919050565b6000613523601d83613e6f565b915061352e82614711565b601d82019050919050565b6000613546606983613e6f565b91506135518261473a565b606982019050919050565b6000613569603183613e5e565b9150613574826147d5565b604082019050919050565b600061358c603d83613e6f565b915061359782614824565b603d82019050919050565b60006135af602d83613e6f565b91506135ba82614873565b602d82019050919050565b600060a08301600083015184820360008601526135e282826131fd565b915050602083015184820360208601526135fc82826131fd565b91505060408301516136116040860182613762565b5060608301516136246060860182613762565b5060808301516136376080860182613762565b508091505092915050565b600060c08301600083015161365a6000860182613762565b506020830151848203602086015261367282826131fd565b9150506040830151848203604086015261368c82826131fd565b91505060608301516136a16060860182613762565b5060808301516136b46080860182613762565b5060a08301516136c760a0860182613762565b508091505092915050565b600060c0830160008301516136ea6000860182613762565b506020830151848203602086015261370282826131fd565b9150506040830151848203604086015261371c82826131fd565b91505060608301516137316060860182613762565b5060808301516137446080860182613762565b5060a083015161375760a0860182613762565b508091505092915050565b61376b81614097565b82525050565b61377a81614097565b82525050565b600061378b826134d0565b9150613797828961326f565b91506137a2826132a0565b91506137ae828861326f565b91506137b982613539565b91506137c5828761326f565b91506137d08261357f565b91506137dc828661326f565b91506137e78261334f565b91506137f3828561326f565b91506137fe826135a2565b915061380a828461326f565b915061381582613467565b9150819050979650505050505050565b600061383082613516565b915061383c828461326f565b915081905092915050565b600060208201905061385c6000830184613131565b92915050565b60006080820190506138776000830187613131565b6138846020830186613131565b6138916040830185613771565b81810360608301526138a381846131c4565b905095945050505050565b60006060820190506138c36000830186613131565b6138d06020830185613771565b6138dd6040830184613771565b949350505050565b600060208201905081810360008301526138ff8184613140565b905092915050565b600060208201905061391c60008301846131b5565b92915050565b6000602082019050818103600083015261393c8184613236565b905092915050565b6000608082019050818103600083015261395e8187613236565b905081810360208301526139728186613236565b90506139816040830185613771565b81810360608301526139938184613236565b905095945050505050565b600060808201905081810360008301526139b88187613236565b905081810360208301526139cc8186613236565b90506139db6040830185613771565b6139e86060830184613771565b95945050505050565b600060a0820190508181036000830152613a0b8188613236565b90508181036020830152613a1f8187613236565b9050613a2e6040830186613771565b613a3b6060830185613771565b613a486080830184613771565b9695505050505050565b60006040820190508181036000830152613a6c8185613236565b9050613a7b6020830184613771565b9392505050565b60006060820190508181036000830152613a9c8186613236565b9050613aab6020830185613771565b613ab86040830184613771565b949350505050565b60006020820190508181036000830152613ad9816132c3565b9050919050565b60006020820190508181036000830152613af9816132e6565b9050919050565b60006020820190508181036000830152613b1981613309565b9050919050565b60006020820190508181036000830152613b398161332c565b9050919050565b60006020820190508181036000830152613b5981613372565b9050919050565b60006020820190508181036000830152613b7981613395565b9050919050565b60006020820190508181036000830152613b99816133b8565b9050919050565b60006020820190508181036000830152613bb9816133db565b9050919050565b60006020820190508181036000830152613bd9816133fe565b9050919050565b60006020820190508181036000830152613bf981613421565b9050919050565b60006020820190508181036000830152613c1981613444565b9050919050565b60006020820190508181036000830152613c398161348a565b9050919050565b60006020820190508181036000830152613c59816134ad565b9050919050565b60006020820190508181036000830152613c79816134f3565b9050919050565b60006020820190508181036000830152613c998161355c565b9050919050565b60006020820190508181036000830152613cba81846135c5565b905092915050565b60006020820190508181036000830152613cdc81846136d2565b905092915050565b6000602082019050613cf96000830184613771565b92915050565b600060c082019050613d146000830189613771565b8181036020830152613d268188613236565b90508181036040830152613d3a8187613236565b9050613d496060830186613771565b613d566080830185613771565b613d6360a0830184613771565b979650505050505050565b6000604082019050613d836000830185613771565b613d906020830184613771565b9392505050565b6000613da1613db2565b9050613dad8282614115565b919050565b6000604051905090565b600067ffffffffffffffff821115613dd757613dd661424d565b5b613de08261427c565b9050602081019050919050565b6000819050602082019050919050565b600081519050919050565b600081519050919050565b600081519050919050565b6000602082019050919050565b600082825260208201905092915050565b600082825260208201905092915050565b600082825260208201905092915050565b600082825260208201905092915050565b600081905092915050565b6000613e858261406d565b9150613e908361406d565b9250817f7fffffffffffffffffffffffffffffffffffffffffffffffffffffffffffffff03831360008312151615613ecb57613eca6141c0565b5b817f8000000000000000000000000000000000000000000000000000000000000000038312600083121615613f0357613f026141c0565b5b828201905092915050565b6000613f1982614097565b9150613f2483614097565b9250827fffffffffffffffffffffffffffffffffffffffffffffffffffffffffffffffff03821115613f5957613f586141c0565b5b828201905092915050565b6000613f6f82614097565b9150613f7a83614097565b925082613f8a57613f896141ef565b5b828204905092915050565b6000613fa082614097565b9150613fab83614097565b9250817fffffffffffffffffffffffffffffffffffffffffffffffffffffffffffffffff0483118215151615613fe457613fe36141c0565b5b828202905092915050565b6000613ffa82614097565b915061400583614097565b925082821015614018576140176141c0565b5b828203905092915050565b600061402e82614077565b9050919050565b60008115159050919050565b60007fffffffff0000000000000000000000000000000000000000000000000000000082169050919050565b6000819050919050565b600073ffffffffffffffffffffffffffffffffffffffff82169050919050565b6000819050919050565b82818337600083830152505050565b60005b838110156140ce5780820151818401526020810190506140b3565b838111156140dd576000848401525b50505050565b600060028204905060018216806140fb57607f821691505b6020821081141561410f5761410e61421e565b5b50919050565b61411e8261427c565b810181811067ffffffffffffffff8211171561413d5761413c61424d565b5b80604052505050565b600061415182614097565b91507fffffffffffffffffffffffffffffffffffffffffffffffffffffffffffffffff821415614184576141836141c0565b5b600182019050919050565b600061419a82614097565b91506141a583614097565b9250826141b5576141b46141ef565b5b828206905092915050565b7f4e487b7100000000000000000000000000000000000000000000000000000000600052601160045260246000fd5b7f4e487b7100000000000000000000000000000000000000000000000000000000600052601260045260246000fd5b7f4e487b7100000000000000000000000000000000000000000000000000000000600052602260045260246000fd5b7f4e487b7100000000000000000000000000000000000000000000000000000000600052604160045260246000fd5b6000601f19601f8301169050919050565b7f202d2d204e465420233a20000000000000000000000000000000000000000000600082015250565b7f4552433732313a207472616e7366657220746f206e6f6e20455243373231526560008201527f63656976657220696d706c656d656e7465720000000000000000000000000000602082015250565b7f4552433732313a207472616e736665722066726f6d20696e636f72726563742060008201527f6f776e6572000000000000000000000000000000000000000000000000000000602082015250565b7f4572726f723a20626f7373206d757374206861766520485020746f206174746160008201527f636b20626f73732e000000000000000000000000000000000000000000000000602082015250565b7f4552433732313a20746f6b656e20616c7265616479206d696e74656400000000600082015250565b7f2c20226d61785f76616c7565223a000000000000000000000000000000000000600082015250565b7f4552433732313a207472616e7366657220746f20746865207a65726f2061646460008201527f7265737300000000000000000000000000000000000000000000000000000000602082015250565b7f4552433732313a20617070726f766520746f2063616c6c657200000000000000600082015250565b7f4552433732313a206f70657261746f7220717565727920666f72206e6f6e657860008201527f697374656e7420746f6b656e0000000000000000000000000000000000000000602082015250565b7f4552433732313a20617070726f76652063616c6c6572206973206e6f74206f7760008201527f6e6572206e6f7220617070726f76656420666f7220616c6c0000000000000000602082015250565b7f4552433732313a2062616c616e636520717565727920666f7220746865207a6560008201527f726f206164647265737300000000000000000000000000000000000000000000602082015250565b7f4552433732313a206f776e657220717565727920666f72206e6f6e657869737460008201527f656e7420746f6b656e0000000000000000000000000000000000000000000000602082015250565b7f4572726f723a20636861726163746572206d757374206861766520485020746f60008201527f2061747461636b20626f73732e00000000000000000000000000000000000000602082015250565b7f7d205d7d00000000000000000000000000000000000000000000000000000000600082015250565b7f4552433732313a206d696e7420746f20746865207a65726f2061646472657373600082015250565b7f4552433732313a20617070726f76656420717565727920666f72206e6f6e657860008201527f697374656e7420746f6b656e0000000000000000000000000000000000000000602082015250565b7f7b226e616d65223a202200000000000000000000000000000000000000000000600082015250565b7f4552433732313a20617070726f76616c20746f2063757272656e74206f776e6560008201527f7200000000000000000000000000000000000000000000000000000000000000602082015250565b7f646174613a6170706c69636174696f6e2f6a736f6e3b6261736536342c000000600082015250565b7f222c20226465736372697074696f6e223a20225468697320697320616e204e4660008201527f542074686174206c6574732070656f706c6520706c617920696e20746865206760208201527f616d65204d657461766572736520536c6179657221222c2022696d616765223a60408201527f2022697066733a2f2f0000000000000000000000000000000000000000000000606082015250565b7f4552433732313a207472616e736665722063616c6c6572206973206e6f74206f60008201527f776e6572206e6f7220617070726f766564000000000000000000000000000000602082015250565b7f222c202261747472696275746573223a205b207b202274726169745f7479706560008201527f223a20224865616c746820506f696e7473222c202276616c7565223a20000000602082015250565b7f7d2c207b202274726169745f74797065223a202241747461636b2044616d616760008201527f65222c202276616c7565223a2000000000000000000000000000000000000000602082015250565b6148cb81614023565b81146148d657600080fd5b50565b6148e281614035565b81146148ed57600080fd5b50565b6148f981614041565b811461490457600080fd5b50565b6149108161406d565b811461491b57600080fd5b50565b61492781614097565b811461493257600080fd5b5056fe506c617965722061747461636b656420626f73732e204e657720626f73732068703a2025734142434445464748494a4b4c4d4e4f505152535455565758595a6162636465666768696a6b6c6d6e6f707172737475767778797a303132333435363738392b2f426f73732061747461636b656420706c617965722e204e657720706c617965722068703a2025730a4d696e746564204e465420772f20746f6b656e496420257320616e6420636861726163746572496e6465782025730a506c6179657220772f206368617261637465722025732061626f757420746f2061747461636b2e2048617320257320485020616e64202573204144a26469706673582212205941a723c375ba3cbd0a26fef3d145f472f9b8119516411f091183b1f971ded564736f6c63430008040033446f6e6520696e697469616c697a696e6720257320772f2048502025732c20696d67202573446f6e6520696e697469616c697a696e6720626f737320257320772f2048502025732c20696d67202573",
  "linkReferences": {},
  "deployedLinkReferences": {}
}